:100000000C9463000C94E0080C94B9080C945F09FC
:100010000C945F090C945F090C94F60A0C948B0005
:100020000C948B000C948B000C948B000C948B0024
:100030000C948B000C948B000C948B000C948B0014
:100040000C946F080C948B000C942D090C940709E8
:100050000C948B000C948B000C948B000C948B00F4
:100060000C94D7090C948B0000000000240027009A
:100070002A0000000008000201000003040700003D
:1000800000000000000000000000250028002B00F8
:1000900000000000230026002900040404040404D6
:1000A0000404020202020202030303030303010227
:1000B00004081020408001020408102001020408F6
:1000C00010200D0B371011241FBECFEFD8E0DEBF7C
:1000D000CDBF24E0AAE8B2E001C01D92AF3AB2075A
:1000E000E1F712E0A0E0B1E0EAE4FBE202C0059033
:1000F0000D92AA38B107D9F710E0C2E6D0E004C0EB
:100100002197FE010E94F210C136D107C9F70E9463
:100110006D0C0C9498150C940000833081F028F439
:10012000813099F08230A9F008958730A9F08830A5
:10013000C9F08430B1F4809180008F7D03C080913C
:1001400080008F7780938000089584B58F7784BD79
:10015000089584B58F7DFBCF8091B0008F77809319
:10016000B00008958091B0008F7DF9CF1F93CF9399
:10017000DF93282F30E0F901EE58FF4F8491F90109
:10018000E255FF4FD491F901E656FF4FC491CC23BD
:10019000A9F0162F81110E948D00EC2FF0E0EE0FD8
:1001A000FF1FEA57FF4FA591B4918FB7F894EC91D8
:1001B000111108C0D095DE23DC938FBFDF91CF9162
:1001C0001F910895DE2BF8CFCF93DF9390E0FC01D1
:1001D000E255FF4F249186569F4FFC01849188235E
:1001E000D1F090E0880F991FFC01E859FF4FA591CD
:1001F000B491FC01EA57FF4FC591D49161110EC033
:100200009FB7F8948C91E22FE0958E238C932881F0
:10021000E223E8839FBFDF91CF9108958FB7F894D1
:10022000EC91E22BEC938FBFF6CF3FB7F89480911F
:100230002E0390912F03A0913003B091310326B586
:10024000A89B05C02F3F19F00196A11DB11D3FBF0E
:10025000BA2FA92F982F8827BC01CD01620F711DDD
:10026000811D911D42E0660F771F881F991F4A95D7
:10027000D1F708958F929F92AF92BF92CF92DF9263
:10028000EF92FF924B015C010E9415016B017C0112
:100290000E9415016C197D098E099F09683E734003
:1002A00081059105A8F321E0821A9108A108B108FF
:1002B00088EEC80E83E0D81EE11CF11C8114910465
:1002C000A104B10429F7FF90EF90DF90CF90BF9089
:1002D000AF909F908F900895089508950895AF92DC
:1002E000BF92CF92DF92EF92FF920F931F93CF9323
:1002F000DF936C017B018B01040F151FEB015E0185
:10030000AE18BF08C017D10759F06991D601ED9119
:10031000FC910190F081E02DC6010995892B79F7B8
:10032000C501DF91CF911F910F91FF90EF90DF906A
:10033000CF90BF90AF900895FC01538D448D252F31
:1003400030E0842F90E0821B930B541710F0CF966F
:10035000089501970895FC01918D828D981761F0A1
:10036000A28DAE0FBF2FB11D5D968C91928D9F5FB8
:100370009F73928F90E008958FEF9FEF0895FC0197
:10038000918D828D981731F0828DE80FF11D858D4A
:1003900090E008958FEF9FEF0895FC01918D228DDD
:1003A000892F90E0805C9F4F821B91098F73992762
:1003B000089588EA93E00E94CD0121E0892B09F499
:1003C00020E0822F089580E090E0892B29F00E94A0
:1003D000D90181110C9400000895FC01A48DA80F8F
:1003E000B92FB11DA35ABF4F2C91848D90E0019677
:1003F0008F739927848FA689B7892C93A089B18997
:100400008C91837080648C93938D848D981306C037
:100410000288F389E02D80818F7D80830895EF929B
:10042000FF920F931F93CF93DF93EC0181E0888FAE
:100430009B8D8C8D98131AC0E889F989808185FF7E
:1004400015C09FB7F894EE89FF896083E889F98920
:1004500080818370806480839FBF81E090E0DF9122
:10046000CF911F910F91FF90EF900895F62E0B8D75
:1004700010E00F5F1F4F0F731127E02E8C8D8E1130
:100480000CC00FB607FCFACFE889F989808185FF97
:10049000F5CFCE010E94ED01F1CFEB8DEC0FFD2FDA
:1004A000F11DE35AFF4FF0829FB7F8940B8FEA8952
:1004B000FB8980818062CFCFCF93DF93EC01888D61
:1004C0008823B9F0AA89BB89E889F9898C9185FDCF
:1004D00003C0808186FD0DC00FB607FCF7CF8C915D
:1004E00085FFF2CF808185FFEDCFCE010E94ED0127
:1004F000E9CFDF91CF9108952091340330913503F6
:100500002817390771F490913203809133039817BB
:1005100041F0E0913203F0E0E253FD4F808190E042
:1005200008958FEF9FEF08950895EF92FF920F9334
:100530001F93CF93DF93DC015C96ED90FC905D9769
:10054000E114F10479F481E090E013969C938E938A
:10055000129790E080E0DF91CF911F910F91FF9073
:10056000EF9008955196ED91FC91529750968C9191
:100570005097982F90950FB75E962C915E97122FFB
:10058000127021FD6095F8942081112319F1282B18
:100590002083E7012197F1F728E0462F50E03081D2
:1005A00060FF1AC0382B3083E7012197F1F7BA01B9
:1005B00075956795215089F7112381F080818923F2
:1005C00080830FBF5C968D919C910197F1F781E03C
:1005D00090E0C1CF2923DCCF3923E5CF9081892B4F
:1005E000EFCF20913403309135032817390771F488
:1005F000809133032091320390E0805C9F4F821BF7
:10060000910960E470E00E946610089590E080E037
:100610000895209134033091350328173907B9F430
:100620009091320380913303981789F0E09132035F
:10063000F0E0E253FD4F80812091320330E02F5FE4
:100640003F4F2F7333272093320390E008958FEFAD
:100650009FEF089585E894E00E94F10218161906AC
:100660002CF485E894E00E940903F4CF1092AA04C8
:100670000895E0913403F0913503E817F90769F420
:10068000A389B4899C918589809589238C93109244
:1006900035031092340381E0089580E008951092AC
:1006A000A00410929F0410929E0410929D04109238
:1006B0009C0410929B049C01990F440B550B60E025
:1006C00079E08DE390E00E949C10B901C901039785
:1006D0002430310510F481E090E09093A2048093DF
:1006E000A10490919104963108F05FC0F901F6954C
:1006F000E795E431F10508F493C07397F0939C04F7
:10070000E0939B046630710508F48DC0B901655013
:10071000710970939E0460939D04B901660F771F61
:10072000260F371F36952795369527952D3031059D
:1007300008F47CC02C5031093093A00420939F040E
:100740002091680084E0983048F031E09E3008F451
:1007500030E081E001C0880F3A95EAF7822B809360
:1007600068002DE630E0983050F02BE630E09E3007
:1007700030F02CE630E0963110F030E020E030939D
:10078000990420939804292F30E0983008F051C044
:1007900081E001C0880F9A95EAF780939A048091CE
:1007A000A1049091A2040197F1F780919F04909188
:1007B000A004892B21F1809134039091350324E02A
:1007C00085389207E1F0009711F00E94390380917B
:1007D000A3048E7F8093A3041092330310923203FC
:1007E00085E894E09093350380933403E091980476
:1007F000F0919904808190919A04892B808368EC10
:1008000070E080E090E00E943A0185E894E00E9468
:10081000F102892BD9F41092800410927F0408957C
:10082000E1E0F0E06BCF61E070E073CF21E030E019
:1008300083CF9E3040F42850310981E001C0880FF9
:100840002A95EAF7AACF2E503109F7CF82E090E03F
:100850009093800480937F0408952091AB02260F2B
:100860003327331F21323105ECF420917E03FC0144
:1008700090E080E0243069F082E00895A091AB021E
:100880002191AC0145575D4FA40FB52FB11D2C939D
:100890000196861798F38091AB02680F6093AB02C4
:1008A00080E0089581E0089510927E0381E08093B6
:1008B0007D031092580361E082E10E94B60061E07E
:1008C00083E10E94B600E9EBF0E080818E7F8083B7
:1008D00080818D7F808388E48093B80085E4809355
:1008E000BC000895CF93DF9391E090938A02882310
:1008F000B9F0C091B800D091BA008091BC008A7B59
:100900008093BC0060E082E10E94B60060E083E179
:100910000E94B6000E945404D093BA00C093B8005D
:10092000DF91CF9108958F929F92AF92BF92CF9215
:10093000DF92EF92FF920F931F93CF93DF93D091AB
:10094000A703D13208F0D7C0182FC091A6030E9488
:1009500015016B017C0180917E0381116BC082E0E7
:1009600080937E0310937D038FEF80937C0310921E
:100970007B03D0937A03A6E8B3E0EAE5F3E080E0F6
:10098000D81391C01092590380915903CC0FC82BF2
:10099000C093590380915803813009F088C01092A8
:1009A00058030E9415016B017C01809159038093CB
:1009B000BB008091800390918103A0918203B0914C
:1009C0008303892B8A2B8B2BA1F00E9415010091A8
:1009D00080031091810320918203309183036C196D
:1009E0007D098E099F09061717072807390708F49C
:1009F00042C08091BC0083FDD8CF85EC8093BC00C1
:100A00000E9415016B017C0180917E03823009F404
:100A100050C080917C038F3F09F46FC080917C03AC
:100A2000803209F46CC080917C03803309F469C082
:100A300084E026C08091800390918103A09182037D
:100A4000B0918303892B8A2B8B2B09F484CF0E94CE
:100A500015018090800390908103A0908203B09054
:100A600083036C197D098E099F0986169706A806CF
:100A7000B90608F070CF80917F030E94720485E070
:100A8000109285031092A70310928403DF91CF91F7
:100A90001F910F91FF90EF90DF90CF90BF90AF909C
:100AA0009F908F9008959D9191938F5F69CF85EE70
:100AB000A5CF8091800390918103A0918203B09192
:100AC0008303892B8A2B8B2B09F49ECF0E9415015F
:100AD0000091800310918103209182033091830360
:100AE0006C197D098E099F09061717072807390712
:100AF00008F08ACFC0CF81E0C3CF80E0C1CF82E0D1
:100B0000BFCF83E0BDCFCF93C62FA0915A04B09141
:100B10005B0491E09093840392E39093A603109278
:100B200085031092A703ED91FC9111970190F0813C
:100B3000E02D682FCD01099580915A0490915B04B6
:100B4000DC01ED91FC910190F081E02D6C2F099575
:100B500081E00E94930491E0811190E0892FCF9170
:100B60000895CF92DF92EF92FF920F931F93CF934E
:100B7000C82F813208F096C00E9415016B017C01DC
:100B800080917E03811169C081E080937E03809310
:100B90007D039FEF90937C0310927B039C0F9093B7
:100BA0007A03809359038091590384668093590393
:100BB00080915803813009F077C0109258030E9449
:100BC00015016B017C01809159038093BB008091DA
:100BD000800390918103A0918203B0918303892BBC
:100BE0008A2B8B2BA1F00E9415010091800310919C
:100BF000810320918203309183036C197D098E0952
:100C00009F09061717072807390708F447C080917E
:100C1000BC0083FDD8CF85EC8093BC000E941501F9
:100C20006B017C0180917E03813009F43FC080918B
:100C30007B038C1710F4C0917B03AAE5B3E0E8E3D3
:100C4000F3E080E08C1354C08C2FCF911F910F9153
:100C5000FF90EF90DF90CF90089580918003909166
:100C60008103A0918203B0918303892B8A2B8B2B64
:100C700009F486CF0E941501009180031091810331
:100C800020918203309183036C197D098E099F099D
:100C9000061717072807390708F072CF80917F03DE
:100CA0000E947204C0E0D0CF85EEB6CF8091800361
:100CB00090918103A0918203B0918303892B8A2BA9
:100CC0008B2B09F4AFCF0E94150100918003109186
:100CD000810320918203309183036C197D098E0971
:100CE0009F09061717072807390708F09BCFD6CFAB
:100CF0009D9191938F5FA6CFE0913703809136034A
:100D0000E81730F4F0E0E85CFC4F808190E0089553
:100D10008FEF9FEF089590913703809136032FEF67
:100D20003FEF981748F4E92FF0E0E85CFC4F208192
:100D300030E09F5F90933703C90108958091360397
:100D400090913703891B990B0895CF92DF92EF9210
:100D5000FF920F931F93CF93DF937C01CB018A0106
:100D600020918403222389F0EB016B01C40ED51E70
:100D7000CC15DD0569F06991D701ED91FC910190E9
:100D8000F081E02DC7010995F3CF642F0E942D0457
:100D9000C801DF91CF911F910F91FF90EF90DF90ED
:100DA000CF900895CF93DF931F92CDB7DEB76983BD
:100DB000209184032223F9F02091A703203258F0D8
:100DC00021E030E0FC013383228390E080E00F904B
:100DD000DF91CF91089580918503E82FF0E0EA57E5
:100DE000FC4F998190838F5F809385038093A70345
:100DF00081E090E0ECCF61E0CE0101960E942D04ED
:100E0000F7CF4115510529F4EAE7F0E080818F77AB
:100E100080836A307105B9F0CB01880F991F880F64
:100E2000991F807267706860682B88E10FB6F8942C
:100E3000A895809360000FBE60936000E0E6F0E04C
:100E4000808180648083232BD9F483B7817F846081
:100E500083BFF89483B7816083BF85B7806685BF01
:100E60008F7D85BF7894889583B78E7F83BF789474
:100E7000452B29F4EAE7F0E08081806880830895BB
:100E800083B7817F846083BFF89483B7816083BF19
:100E90007894889583B78E7F83BF7894E9CFF89450
:100EA000E8988EE691E0909301018093000161E063
:100EB00082E00E94B6007894089590E080E0089562
:100EC0000F931F93CF93DF938C0180915A049091DD
:100ED0005B0421E02093840322E32093A603109275
:100EE00085031092A703DC01ED91FC910190F08144
:100EF000E02D60E1099581E00E94930481111FC0FB
:100F000088E00E94B1051092370380933603E80110
:100F1000085F1F4F80915A0490915B04DC01ED91B2
:100F2000FC910284F385E02D09958993C017D107C0
:100F300089F781E0DF91CF911F910F91089580E0B3
:100F4000F9CFA0915A04B0915B0491E0909384038F
:100F500092E39093A603109285031092A703ED915C
:100F6000FC9111970190F081E02D682FCD0109953A
:100F700081E00E94930481E00E94B1051092370342
:100F800080933603882359F080915A0490915B0432
:100F9000DC01ED91FC910284F385E02D0995089523
:100FA000FC0101900020E9F73197AF01481B590B74
:100FB000BC0188EA93E00C946F01CF93DF930E9409
:100FC000D007EC0180E491E00E94D0078C0F9D1FB8
:100FD000DF91CF910895EF92FF920F931F93CF93DC
:100FE000DF93EC01198218821B821A821D821C82F7
:100FF00061157105A9F17B01FB0101900020E9F762
:1010000031978F01061B170BB8016F5F7F4F90E080
:1010100080E00E941D120097B9F0998388831B839A
:101020000A832C813D81232B11F4FC0110821D8346
:101030000C83B70188819981DF91CF911F910F9126
:10104000FF90EF900C94E31288819981009711F042
:101050000E949411198218821D821C821B821A829E
:10106000DF91CF911F910F91FF90EF90089585ED43
:101070008093BC008091800390918103A0918203B2
:10108000B09183030796A11DB11D23E0B695A795E6
:10109000979587952A95D1F72091BC0024FD03C030
:1010A00010927E03089540918003509181036091D6
:1010B000820370918303452B462B472B69F30097DE
:1010C000A105B10541F025E32A95F1F7000001974C
:1010D000A109B109E1CF80917F030C9472041F92A2
:1010E0000F920FB60F9211242F933F938F939F93DC
:1010F000AF93BF9380912A0390912B03A0912C036F
:10110000B0912D033091290323E0230F2D3758F59B
:101110000196A11DB11D2093290380932A0390936A
:101120002B03A0932C03B0932D0380912E03909159
:101130002F03A0913003B09131030196A11DB11D81
:1011400080932E0390932F03A0933003B093310329
:10115000BF91AF919F918F913F912F910F900FBEB3
:101160000F901F90189526E8230F0296A11DB11D20
:10117000D2CF1F920F920FB60F9211242F933F934D
:101180004F935F936F937F938F939F93AF93BF938F
:10119000EF93FF93E0910201F09103010995FF9114
:1011A000EF91BF91AF919F918F917F916F915F91DF
:1011B0004F913F912F910F900FBE0F901F90189558
:1011C0001F920F920FB60F9211242F933F934F93BC
:1011D0005F936F937F938F939F93AF93BF93EF939F
:1011E000FF93E0910001F09101010995FF91EF91CA
:1011F000BF91AF919F918F917F916F915F914F912F
:101200003F912F910F900FBE0F901F9018951F9236
:101210000F920FB60F9211242F933F934F935F932A
:101220006F937F938F939F93AF93BF93EF93FF93AE
:1012300088EA93E00E94ED01FF91EF91BF91AF9199
:101240009F918F917F916F915F914F913F912F91DE
:101250000F900FBE0F901F9018951F920F920FB610
:101260000F9211242F938F939F93EF93FF93E0910D
:10127000B803F091B9038081E091BE03F091BF0300
:1012800082FD1BC090818091C1038F5F8F7320917D
:10129000C203821741F0E091C103F0E0E855FC4F32
:1012A000958F8093C103FF91EF919F918F912F9123
:1012B0000F900FBE0F901F9018958081F4CF1F9252
:1012C0000F920FB60F9211242F933F934F935F937A
:1012D0006F937F938F939F93AF93BF93EF93FF93FE
:1012E000E0913403F0913503309749F0A685B78536
:1012F0008585968D91FF14C09C918923A1F4FF915F
:10130000EF91BF91AF919F918F917F916F915F917D
:101310004F913F912F910F900FBE0F901F901895F6
:101320009C91892361F7A389B4899C9185898095D3
:1013300089238C93868997890197F1F7608D718D48
:10134000A685B785558538E020E0CB010197F1F7F8
:10135000822F90E095958795282F4C91452309F091
:101360002068315091F7868D81FD2095809133035F
:1013700090E001968F73992730913203381799F0D6
:10138000A0913303B0E0A253BD4F2C93809333035D
:10139000828D938D0197F1F7A389B4898C919589FA
:1013A000892B8C93ACCF868D8160868FF1CF1F9275
:1013B0000F920FB60F9211242F933F934F935F9389
:1013C0006F937F938F939F93AF93BF93EF93FF930D
:1013D0008091B900887F803609F44AC0F0F58832E0
:1013E00009F4A7C018F5803109F49BC0B8F488232C
:1013F00009F4F9C0883009F494C0FF91EF91BF91CE
:10140000AF919F918F917F916F915F914F913F919C
:101410002F910F900FBE0F901F901895883109F4EF
:1014200088C0803251F780937C0314C0803409F463
:101430009DC040F48033B9F38833F9F680937C0380
:1014400085ECB0C0803509F485C0883509F496C0B4
:10145000883499F60E943708D0CF883909F48CC0B7
:1014600038F5883729F050F4883611F0803729F69E
:1014700083E080937E031092CD0257C0883809F430
:101480007BC0803919F0803809F0B7CF8091CD0248
:10149000803208F071C0E091CD0281E08E0F809320
:1014A000CD028091BB00F0E0E355FD4F80833DC04D
:1014B000803B39F0E0F4803A09F479C0883A09F0C9
:1014C0009CCF84E080937E031092AC021092AB021A
:1014D000E0911003F091110309958091AB02811105
:1014E0000FC081E08093AB0210928B0209C0803C58
:1014F00009F4A6CF883C09F4A3CF883B09F07DCF3F
:10150000E091AC0281E08E0F8093AC02F0E0E557F1
:10151000FD4F80818093BB009091AC028091AB0223
:1015200029C0809159038093BB0085EC8093BC0057
:1015300064CF90917B0380917A03981758F5E091DE
:101540007B0381E08E0F80937B03F0E0E65AFC4F33
:101550008081E9CFE0917B0381E08E0F80937B0354
:101560008091BB00F0E0E65AFC4F808390917B03B2
:1015700080917A039817C8F285E8D8CFE0917B0371
:1015800081E08E0F80937B038091BB00F0E0E65AF0
:10159000FC4F808380917D0381115CCF81E080933B
:1015A000580384EA8093BC0010927E0326CF85EC1A
:1015B0008093BC0010927E038091CD02803230F483
:1015C000E091CD02F0E0E355FD4F10826091CD0235
:1015D00070E0E0910E03F0910F038DEA92E009951F
:1015E0001092CD020ACF10927C0334CF1F920F923B
:1015F0000FB60F9211248F930FB6F894A89580918F
:101600006000886180936000109260000FBE8F912F
:101610000F900FBE0F901F901895CF93DF93CDB70B
:10162000DEB76F970FB6F894DEBF0FBECDBF109236
:10163000AB031092AA0388EE93E0A0E0B0E08093A1
:10164000AC039093AD03A093AE03B093AF032EE031
:1016500031E03093A9032093A80325EC30E03093C8
:10166000B5032093B40324EC30E03093B703209308
:10167000B60320EC30E03093B9032093B80321EC9B
:1016800030E03093BB032093BA0322EC30E0309378
:10169000BD032093BC0326EC30E03093BF032093BE
:1016A000BE031092C1031092C2031092C3031092A2
:1016B000C403109248041092470480934904909305
:1016C0004A04A0934B04B0934C0420E231E03093E1
:1016D00046042093450410925F0410925E048093A8
:1016E000600490936104A0936204B093630422E3C6
:1016F00031E030935D0420935C04109288041092D2
:1017000087048093890490938A04A0938B04B093F8
:101710008C0422E331E030938604209385041092F8
:10172000A4041092A5041092A6041092A7044FEFEF
:101730004093A8041092AA044CE45DE150937C0409
:1017400040937B0448E151E050937E0440937D0434
:101750001092800410927F041092820410928104EF
:1017600010928404109283041C821B828D839E83BA
:10177000AF83B8873A832983188E1F8A1A8E198EF1
:101780001C8E1B8E1E8E1D8E6F8D6E7F6D7F6F8FDC
:101790006695617081E068278BE00E94B60061E089
:1017A0008BE00E94E400E9EBF0E0E491E98BE5EAEC
:1017B000F0E0E491F0E0EE0FFF1FEA57FF4F859154
:1017C00094919B8B8A8B60E08AE00E94E4008F8D6D
:1017D00081FD04C061E08AE00E94B6009AE09D8726
:1017E000E8EBF0E084918E87E4EAF0E0E491F0E049
:1017F000EE0FFF1FE057FF4F25913491388B2F8755
:101800004B815C8150938804409387044D815E81B5
:101810006F8178854093890450938A0460938B0488
:1018200070938C0449855A856B857C8540938D0423
:1018300050938E0460938F0470939004909391045E
:101840008093920430939404209393048989809325
:1018500095048A899B8990939704809396048C8938
:101860009D8990939904809398048E8980939A041B
:101870008F89988D90939C0480939B04898D9A8D79
:1018800090939E0480939D048B8D9C8D9093A004D7
:1018900080939F048D8D9E8D9093A2048093A104CC
:1018A0009F8D8091A30490FB80F991FB81F9809337
:1018B000A30482E391E09A838983CE0101960E947A
:1018C000390381E0809359046F960FB6F894DEBF18
:1018D0000FBECDBFDF91CF910895CF93DF93CDB7EA
:1018E000DEB7A7970FB6F894DEBF0FBECDBF7894D2
:1018F00084B5826084BD84B5816084BD85B5826015
:1019000085BD85B5816085BD80916E0081608093C5
:101910006E0010928100809181008260809381002E
:10192000809181008160809381008091800081603E
:10193000809380008091B10084608093B100809199
:10194000B00081608093B00080917A0084608093C1
:101950007A0080917A00826080937A0080917A0088
:10196000816080937A0080917A00806880937A0009
:101970001092C100E091B803F091B90382E0808336
:10198000E091B403F091B5031082E091B603F091B9
:10199000B7038FEC80831092C003E091BC03F091F9
:1019A000BD0386E08083E091BA03F091BB038081A0
:1019B00080618083E091BA03F091BB0380818860ED
:1019C0008083E091BA03F091BB03808180688083BB
:1019D000E091BA03F091BB0380818F7D808368EC36
:1019E00070E080E090E00E943A0183E491E00E9480
:1019F000DD0760E082E00E94E40061E082E00E9496
:101A0000B60061E084E00E94E40060E08AE00E94A9
:101A1000E40061E08BE00E94E40061E08BE00E9462
:101A2000B60080E895E20E944F036CE271E080E02E
:101A300090E00E943A0180913403909135038558DB
:101A40009440E1F586E591E00E94DD0764E170E0F5
:101A500080E090E00E943A01109237031092360322
:101A6000109285031092A7030E9454048CE691E023
:101A700090931103809310038DE691E090930F03F0
:101A800080930E0364E170E080E090E00E943A01F0
:101A900085E494E090935B0480935A0481E0809302
:101AA000840382E38093A60381E00E949304882349
:101AB00041F08CE791E00E94DD07FFCF87E691E0DF
:101AC000C3CF88EA91E00E94DD078FE10E94A10761
:101AD000682F61708FE10E94830560E08EE10E94B3
:101AE00083058DE10E94A1078C7F682F61608DE1E5
:101AF0000E9483058CE10E94A107682F6F608CE132
:101B00000E94830560E08BE10E9483058FE10E94C3
:101B1000A107682F60618FE10E9483058DE10E941B
:101B2000A107682F60618DE10E9483056AE0862E1F
:101B3000912CA12CB12C34E0632E712C43E0E42EC7
:101B4000F12CCC24C394D12C8EE10E94A10784FFF8
:101B500008C08EE10E94A107682F6F7E8EE10E946F
:101B6000830581E594E00E946007882309F496C10B
:101B700080915104282F22952F709AE08F70299F11
:101B8000800D1124833659F080915204282F22951C
:101B90002F708F70299F800D11248B3321F5CE017A
:101BA00001960E946007882309F478C1909151043E
:101BB0008981392F32953F702AE09F70329F900DB6
:101BC0001124382F32953F708F70329F800D112471
:101BD000891748F488E0FE013196A1E5B4E0019050
:101BE0000D928A95E1F720915804909157048091C5
:101BF0005604322F32953F701AE02F70319F200D1E
:101C000011241F922F93292F22952F709F70219FAF
:101C1000900D11241F929F93982F92959F708F7013
:101C2000919F800D11241F928F9389EB91E09F93D8
:101C30008F931F920BE00F9382E193E09F938F931A
:101C40000E94EA1262E173E0CE0182960E94EB07E5
:101C50000FB6F894DEBF0FBECDBF3091590420916E
:101C600052048091540490915304332309F4EEC03C
:101C7000382F32953F708F70319F800D112430E0E6
:101C800041E48C3028F030E08C3009F03CE040E555
:101C90001F924F93522F52955F704AE02F70549FBE
:101CA000200D11241F922F93292F22952F709F70A2
:101CB000249F900D11241F929F93831B990B9F9338
:101CC0008F93EAECF1E0FF93EF931F928BE08F93F9
:101CD0008DE193E09F938F930E94EA120FB6F894E0
:101CE000DEBF0FBECDBF6DE173E0CE0101960E9455
:101CF000EB074EA15FA16AA17BA188EA93E00E9455
:101D00006F0186EA91E00E94D0074D815E81698172
:101D10007A8188EA93E00E946F0180E491E00E945A
:101D2000D00789819A81009711F00E9494118AA1AD
:101D30009BA1009711F00E94941161E084E00E9441
:101D4000B60068EE73E080E090E00E943A0180E81F
:101D500095E20E944F036CE271E080E090E00E9407
:101D60003A010E942A0364EF71E080E090E00E9453
:101D70003A0185E894E00E94F10218161906DCF495
:101D80008091AA04811117C004EA14E085E894E068
:101D90000E940903F80181938F0188EA94E08E176D
:101DA0009F07A1F785E894E00E9409032091A80409
:101DB0002817190649F38091A7048F3F09F08DC0B9
:101DC0008091A40490E04091A50450E09C01215032
:101DD0003F4F240F351F332730938404209383040F
:101DE0006091A6046217130609F45DC0D0928004C6
:101DF000C0927F04209181043091820480917B0401
:101E000090917C04821793070CF05AC0F0928004E2
:101E1000E0927F0490938204809381041092AA043C
:101E200080917F0490918004892B09F48DC08BE709
:101E300092E00E94D00780917F04909180048130CD
:101E4000910509F067C08EEF91E0B3C0322F329553
:101E50003F702F70319F200D11241F922F93292F37
:101E600022952F709F70219F900D11241F929F9398
:101E7000982F92959F708F70919F800D11241F92C3
:101E80008F93ECEDF1E0FF93EF931F920F938DE1B1
:101E900093E09F938F930E94EA1220CF8BEE91E004
:101EA0000E94D0074ACF982F8827840F951F9093C0
:101EB0008204809381041092800410927F049ACF50
:101EC00080917D0490917E04281739070CF0A6CFED
:101ED0007092800460927F049DCFE5E0F0E0F09383
:101EE0008004E0937F049ACFA201910119A28E0190
:101EF0000F5D1F4FCA01B901A50194010E947A101C
:101F0000605DF80162938F0121153105410551058E
:101F100089F747C08430910519F48DE092E049C0FB
:101F20008330910519F48FE192E043C0853091052B
:101F300019F481E392E03DC0029719F48CE392E03A
:101F400038C089E492E035C08FE692E00E94D00765
:101F50002090810430908204032C000C4408550822
:101F600057FEC2CF6DE288EA93E00E940F0222275B
:101F70003327A901221933094409550919A28E01F1
:101F80000F5D1F4FCA01B901A50194010E947A108B
:101F9000605DF80162938F012115310541055105FE
:101FA00089F70115110519F0C8010E94D0078BEFC0
:101FB00091E00E94DD0787E592E00E94DD0764E67C
:101FC00070E080E090E00E943A0160E084E00E94CE
:101FD000B6000E942A0385E894E00E943903E4E7F2
:101FE000F0E08491E0EBF0E00491ECE9F0E0149192
:101FF000112331F181110E948D00E12FF0E0EE0FED
:10200000FF1FE057FF4FA591B491EC910E23C1F053
:10201000F8948FE497E09093010180930001809100
:1020200069008C7F80936900E89A789430E020E022
:1020300050E040E06AE070E088E293E00E9401072F
:1020400064E670E080E090E00E943A0186E692E06B
:102050000E94DD0780E090E0892B09F475CD0E9495
:10206000D901882309F467CD0E94000064CD0F9345
:102070001F93CF93DF93CCE5D4E082E391E0998383
:10208000888302E311E01AA709A785E894E00E947B
:10209000390319830883CE01DF91CF911F910F91EE
:1020A0000C943903AA1BBB1B51E107C0AA1FBB1F1D
:1020B000A617B70710F0A61BB70B881F991F5A95D4
:1020C000A9F780959095BC01CD01089597FB072E47
:1020D00016F4009407D077FD09D00E94521007FC37
:1020E00005D03EF4909581959F4F08957095619528
:1020F0007F4F0895A1E21A2EAA1BBB1BFD010DC044
:10210000AA1FBB1FEE1FFF1FA217B307E407F507A7
:1021100020F0A21BB30BE40BF50B661F771F881F83
:10212000991F1A9469F760957095809590959B0119
:10213000AC01BD01CF010895052E97FB1EF400945C
:102140000E94B31057FD07D00E947A1007FC03D0FD
:102150004EF40C94B31050954095309521953F4F17
:102160004F4F5F4F089590958095709561957F4F83
:102170008F4F9F4F08952F923F924F925F926F9291
:102180007F928F929F92AF92BF92CF92DF92EF9207
:10219000FF920F931F93CF93DF93CDB7DEB7CA1B88
:1021A000DB0B0FB6F894DEBF0FBECDBF09942A88B3
:1021B000398848885F846E847D848C849B84AA845B
:1021C000B984C884DF80EE80FD800C811B81AA81E8
:1021D000B981CE0FD11D0FB6F894DEBF0FBECDBFB3
:1021E000ED010895EE0FFF1F0590F491E02D099485
:1021F0000F931F93CF93DF938230910510F482E009
:1022000090E0E091AD04F091AE0430E020E0B0E069
:10221000A0E0309799F42115310509F44AC0281B34
:10222000390B24303105D8F58A819B816115710500
:1022300089F1FB0193838283FE0111C040815181AA
:102240000281138148175907E0F04817590799F49C
:10225000109761F012960C93129713961C93329676
:10226000CF01DF91CF911F910F9108950093AD049D
:102270001093AE04F4CF2115310551F042175307E6
:1022800038F0A901DB019A01BD01DF01F801C1CFDE
:10229000EF01F9CF9093AE048093AD04CDCFFE0152
:1022A000E20FF31F819391932250310939832883E0
:1022B000D7CF2091AB043091AC04232B41F4209173
:1022C0000601309107013093AC042093AB042091B8
:1022D0000401309105012115310541F42DB73EB7B8
:1022E0004091080150910901241B350BE091AB048A
:1022F000F091AC04E217F307A0F42E1B3F0B281754
:10230000390778F0AC014E5F5F4F2417350748F06E
:102310004E0F5F1F5093AC044093AB048193919395
:102320009FCFF0E0E0E09CCFCF93DF930097E9F000
:10233000FC01329713821282A091AD04B091AE04D9
:10234000ED0130E020E01097A1F420813181820F6F
:10235000931F2091AB043091AC042817390709F082
:1023600061C0F093AC04E093AB04DF91CF9108958A
:10237000EA01CE17DF07E8F54A815B819E0141152E
:102380005105B1F7E901FB83EA8349915991C40FE3
:10239000D51FEC17FD0761F4808191810296840FAF
:1023A000951FE90199838883828193819B838A8326
:1023B000F0E0E0E012968D919C9113970097B9F5AB
:1023C0002D913C911197CD010296820F931F209180
:1023D000AB043091AC042817390739F6309751F522
:1023E0001092AE041092AD04B093AC04A093AB0471
:1023F000BCCFD383C28340815181840F951FC817FE
:10240000D90761F44E5F5F4F88819981480F591F4A
:10241000518340838A819B81938382832115310577
:1024200009F0B0CFF093AE04E093AD049ECFFD0170
:10243000DC01C0CF13821282D7CFB0E0A0E0E3E28C
:10244000F2E10C94BD108C01009751F4CB010E9475
:10245000F8108C01C801CDB7DEB7E0E10C94D910BB
:10246000FC01E60FF71F9C0122503109E217F30728
:1024700008F49DC0D901CD91DC911197C617D707FB
:1024800098F0C530D10530F3CE0104978617970731
:1024900008F3C61BD70B2297C193D1936D937C93FE
:1024A000CF010E949411D6CF5B01AC1ABD0A4C013A
:1024B0008C0E9D1EA091AD04B091AE04512C412C08
:1024C000F12CE12C109731F58091AB049091AC0484
:1024D0008815990509F05CC04616570608F058C0E3
:1024E0008091040190910501009741F48DB79EB74A
:1024F0004091080150910901841B950BE817F907D9
:1025000008F055C0F093AC04E093AB04F90171837B
:102510006083A0CF8D919C91119712966C90129729
:1025200013967C901397A815B90559F56C0142E0F4
:10253000C40ED11CCA14DB0420F1AC014A195B099A
:10254000DA011296159780F062827382518340837C
:10255000D9016D937C93E114F10471F0D7011396C6
:10256000FC93EE93129776CF22968C0F9D1FF90164
:1025700091838083F301EFCFF093AE04E093AD0439
:1025800069CF4816590608F42C017D01D3019ACF72
:10259000CB010E94F8107C01009749F0AE01B80110
:1025A0000E94DA12C8010E949411870153CF10E0F3
:1025B00000E050CFFB01DC0102C001900D924150C0
:1025C0005040D8F70895FB01DC0101900D920020E6
:1025D000E1F70895AEE0B0E0E0EFF2E10C94C9104D
:1025E0000D891E898F89988D26E02C831A83098393
:1025F00097FF02C080E090E801979E838D83AE0133
:10260000455E5F4F698D7A8DCE0101960E941A1347
:102610004D815E8157FD0AC02F81388542175307CF
:102620000CF49A01020F131FF80110822E96E4E0B9
:102630000C94E510ABE0B0E0E0E2F3E10C94BB10E9
:102640007C013B018A01FC0117821682838181FF94
:10265000C8C1CE0101965C01F7019381F30193FD9E
:10266000859193FF81913F01882309F453C18532FD
:1026700039F493FD859193FF81913F01853229F4CF
:10268000B70190E00E940A15E7CF912C212C312C44
:10269000FFE1F31538F08B3211F190F4803209F13B
:1026A000833229F137FC3CC020ED280F2A3050F549
:1026B00036FE20C08AE0989E200D1124922E06C07E
:1026C0008D3291F0803371F7689430F8F30193FD07
:1026D000859193FF81913F018111DACF21C06894E8
:1026E00031F8689432F8F2CF689433F8EFCF6894F9
:1026F00034F8ECCFEAE02E9E200D1124222E6894AF
:1027000035F8E4CF8E3229F436FC04C1689436F8EB
:10271000DDCF8C3619F4689437F8D8CF8836B1F20B
:10272000982F9F7D95549330E0F08336A1F1833745
:10273000C1F1833509F063C02801F2E04F0E511C4E
:10274000F801C080D180692D70E036FC02C06FEFC7
:102750007FEFC6010E94F4144C01689437F882019F
:102760000AC00C5F1F4FFFE3F98388248394912CE8
:102770006501E89437F833FE2DC0522C8114910482
:1027800071F5552009F468CFB70180E290E00E940E
:102790000A155A94F6CFF801808189830E5F1F4F86
:1027A000E4CF2801F2E04F0E511CF801C080D18027
:1027B000692D70E036FC02C06FEF7FEFC6010E940A
:1027C000FF144C018201D5CFB70180E290E00E9456
:1027D0000A152A942814190409F0B0F7CECFF6018F
:1027E00037FC859137FE81916F01B70190E00E941F
:1027F0000A1551105A94F1E08F1A9108BFCF843610
:1028000019F0893609F077C0F80137FE6BC0608196
:102810007181828193810C5F1F4FF32DFF763F2ED4
:1028200097FF09C090958095709561957F4F8F4F68
:102830009F4F689437F82AE030E0A5010E943A15CE
:10284000C82ECA188C2C432C36FE0CC0E89440F8D5
:10285000C91440F434FE05C032FC03C0F32DFE7EE3
:102860004F2E892C44FE95C0FE01EC0DF11D808198
:10287000803309F087C0242D297E422E842D887054
:10288000582E43FC95C040FE8FC09C2C821418F437
:102890002C0C922C981844FE91C0B70180E390E074
:1028A0000E940A1542FE09C088E790E041FE02C07E
:1028B00088E590E0B7010E940A15C91408F48AC09F
:1028C000CA94D12C9FEFC91AD90ACA0CDB1CF60195
:1028D00082916F01B70190E00E940A15AC14BD040B
:1028E000B1F74FCF60817181072E000C880B990BD7
:1028F0000E5F1F4F92CFD32CE894D4F82AE030E03B
:10290000853739F1232D297FD22E8F3601F148F4F6
:102910008835A9F0F701868197812B96E2E10C9426
:10292000D710803749F08837A9F7D4FE02C06894E1
:10293000D2F820E130E00DC06894D4F8F6CF34FE30
:1029400003C0822F8660D82E20E132E002C028E04A
:1029500030E0F801D7FE0FC06081718182819381E0
:102960000C5F1F4FA5010E943A15C82ECA183D2CB6
:10297000E89437F867CF6081718190E080E00E5F66
:102980001F4FF0CF42FC02C0839478CF839483948E
:1029900075CF842D867809F471CFF6CFB70180E228
:1029A00090E00E940A1583948214C0F3512C73CFD7
:1029B000522C5818821408F46ECFF8CF842D8678E4
:1029C00009F47BCF8BE241FE80E247FC8DE2B70148
:1029D00090E071CFB70180E390E00E940A159A94CD
:1029E0006CCF8FEF9FEF99CFFC0105906150704045
:1029F0000110D8F7809590958E0F9F1F0895FC01C8
:102A00006150704001900110D8F7809590958E0F1D
:102A10009F1F08950F931F93CF93DF93182F092FB4
:102A2000EB018B8181FD09C01FEF0FEF812F902FEC
:102A3000DF91CF911F910F91089582FF14C02E81D5
:102A40003F818C819D81281739073CF4E881F98109
:102A5000CF0101969983888310838E819F8101968F
:102A60009F838E83E3CFE885F985812F0995892B94
:102A7000A1F3DACFFA01AA27283051F1203181F1F0
:102A8000E8946F936E7F6E5F7F4F8F4F9F4FAF4F76
:102A9000B1E03ED0B4E03CD0670F781F891F9A1F89
:102AA000A11D680F791F8A1F911DA11D6A0F711D3D
:102AB000811D911DA11D20D009F468943F912AE049
:102AC000269F11243019305D3193DEF6CF01089531
:102AD000462F4770405D4193B3E00FD0C9F7F6CF62
:102AE000462F4F70405D4A3318F0495D31FD40522A
:102AF000419302D0A9F7EACFB4E0A69597958795C0
:102B000077956795BA95C9F700976105710508959E
:102B10009B01AC010A2E069457954795379527954A
:102B2000BA95C9F7620F731F841F951FA01D0895E2
:102B300010E0C2E6D0E004C0FE010E94F21021962F
:0A2B4000C336D107C9F7F894FFCFA0
:102B4A006E016E010000AF048000000000000F0259
:102B5A006F019C015C02CD01AB01BF0100000000C6
:102B6A00D206A5065D0794029E068B067C06000027
:102B7A00000095026F015D079402F10209037C02CD
:102B8A000D0A0053657269616C20706F727420615E
:102B9A0063746976650053656E736F72206C69732E
:102BAA0074656E696E670053656E736F72206E6F1F
:102BBA0074206C697374656E696E670052544320A1
:102BCA00446576696365206E6F7420666F756E64FE
:102BDA002E20506C6561736520636865636B20778E
:102BEA006972696E672E20005254432044657669E3
:102BFA00636520666F756E6400253032642F253058
:102C0A0032642F32302530326400253032643A255E
:102C1A003032643A2530326425634D0025303264FF
:102C2A003A253032643A25303264005254432072D5
:102C3A00656164206661696C6564006D6D00436856
:102C4A0065636B73756D206572726F720042656C95
:102C5A006F77206C6F776572206C696D69740041BB
:102C6A00626F7665207570706572206C696D697423
:102C7A000044617461206572726F720053657269F3
:102C8A00616C206572726F7200556E6B6E6F776E33
:102C9A00206572726F7200476F696E6720746F20C9
:102CAA00736C65657000576F6B656E2055700044D4
:102CBA00697374616E6365203D20004572726F729C
:0A2CCA0020636F6465203D200000C8
:00000001FF
