:100000000C9463000C948E050C9467050C940D06FB
:100010000C940D060C940D060C9485060C948B0024
:100020000C948B000C948B000C948B000C948B0024
:100030000C948B000C948B000C948B000C948B0014
:100040000C941D050C948B000C94DB050C94B505E9
:100050000C948B000C948B000C948B000C948B00F4
:100060000C948B000C948B000000000024002700EF
:100070002A0000000008000201000003040700003D
:1000800000000000000000000000250028002B00F8
:1000900000000000230026002900040404040404D6
:1000A0000404020202020202030303030303010227
:1000B00004081020408001020408102001020408F6
:1000C00010209C06300A11241FBECFEFD8E0DEBFFF
:1000D000CDBF12E0A0E0B1E0EEE8F5E102C005908E
:1000E0000D92AE39B107D9F723E0AEE9B2E001C015
:1000F0001D92A83DB207E1F710E0C2E6D0E004C0CF
:100100002197FE010E94B40AC136D107C9F70E94A7
:10011000E7070C94BA0A0C940000833081F028F4AD
:10012000813099F08230A9F008958730A9F08830A5
:10013000C9F08430B1F4809180008F7D03C080913C
:1001400080008F7780938000089584B58F7784BD79
:10015000089584B58F7DFBCF8091B0008F77809319
:10016000B00008958091B0008F7DF9CF1F93CF9399
:10017000DF93282F30E0F901EE58FF4F8491F90109
:10018000E255FF4FD491F901E656FF4FC491CC23BD
:10019000A9F0162F81110E948D00EC2FF0E0EE0FD8
:1001A000FF1FEA57FF4FA591B4918FB7F894EC91D8
:1001B000111108C0D095DE23DC938FBFDF91CF9162
:1001C0001F910895DE2BF8CFCF93DF9390E0FC01D1
:1001D000E255FF4F249186569F4FFC01849188235E
:1001E000D1F090E0880F991FFC01E859FF4FA591CD
:1001F000B491FC01EA57FF4FC591D49161110EC033
:100200009FB7F8948C91E22FE0958E238C932881F0
:10021000E223E8839FBFDF91CF9108958FB7F894D1
:10022000EC91E22BEC938FBFF6CF3FB7F89480911F
:10023000E4029091E502A091E602B091E70226B5B2
:10024000A89B05C02F3F19F00196A11DB11D3FBF0E
:10025000BA2FA92F982F8827BC01CD01620F711DDD
:10026000811D911D42E0660F771F881F991F4A95D7
:10027000D1F708958F929F92AF92BF92CF92DF9263
:10028000EF92FF924B015C010E9415016B017C0112
:100290000E9415016C197D098E099F09683E734003
:1002A00081059105A8F321E0821A9108A108B108FF
:1002B00088EEC80E83E0D81EE11CF11C8114910465
:1002C000A104B10429F7FF90EF90DF90CF90BF9089
:1002D000AF909F908F9008950895AF92BF92CF9264
:1002E000DF92EF92FF920F931F93CF93DF936C01F6
:1002F0007B018B01040F151FEB015E01AE18BF08D7
:10030000C017D10759F06991D601ED91FC91019088
:10031000F081E02DC6010995892B79F7C501DF91A0
:10032000CF911F910F91FF90EF90DF90CF90BF90F2
:10033000AF900895FC01538D448D252F30E0842F1C
:1003400090E0821B930B541710F0CF9608950197FD
:100350000895FC01918D828D981761F0A28DAE0FEA
:10036000BF2FB11D5D968C91928D9F5F9F73928F71
:1003700090E008958FEF9FEF0895FC01918D828D9D
:10038000981731F0828DE80FF11D858D90E008956A
:100390008FEF9FEF0895FC01918D228D892F90E0C2
:1003A000805C9F4F821B91098F73992708958CEE73
:1003B00092E00E94CB0121E0892B09F420E0822FFA
:1003C000089580E090E0892B29F00E94D7018111E7
:1003D0000C9400000895FC01A48DA80FB92FB11D45
:1003E000A35ABF4F2C91848D90E001968F7399276B
:1003F000848FA689B7892C93A089B1898C91837049
:1004000080648C93938D848D981306C00288F38941
:10041000E02D80818F7D80830895EF92FF920F936E
:100420001F93CF93DF93EC0181E0888F9B8D8C8DA0
:1004300098131AC0E889F989808185FF15C09FB794
:10044000F894EE89FF896083E889F9898081837057
:10045000806480839FBF81E090E0DF91CF911F9106
:100460000F91FF90EF900895F62E0B8D10E00F5F27
:100470001F4F0F731127E02E8C8D8E110CC00FB6FD
:1004800007FCFACFE889F989808185FFF5CFCE0195
:100490000E94EB01F1CFEB8DEC0FFD2FF11DE35A24
:1004A000FF4FF0829FB7F8940B8FEA89FB89808118
:1004B0008062CFCFCF93DF93EC01888D8823B9F092
:1004C000AA89BB89E889F9898C9185FD03C080815F
:1004D00086FD0DC00FB607FCF7CF8C9185FFF2CFDC
:1004E000808185FFEDCFCE010E94EB01E9CFDF9146
:1004F000CF9108952091EA023091EB022817390735
:1005000071F49091E8028091E902981741F0E0912E
:10051000E802F0E0E256FD4F808190E008958FEF11
:100520009FEF08950895EF92FF920F931F93CF933B
:10053000DF93DC015C96ED90FC905D97E114F10493
:1005400079F481E090E013969C938E93129790E05B
:1005500080E0DF91CF911F910F91FF90EF90089570
:100560005196ED91FC91529750968C915097982FFF
:1005700090950FB75E962C915E97122F127021FD09
:100580006095F8942081112319F1282B2083E7012D
:100590002197F1F728E0462F50E0308160FF1AC024
:1005A000382B3083E7012197F1F7BA0175956795EC
:1005B000215089F7112381F08081892380830FBF27
:1005C0005C968D919C910197F1F781E090E0C1CF0D
:1005D0002923DCCF3923E5CF9081892BEFCF2091E0
:1005E000EA023091EB022817390771F48091E90291
:1005F0002091E80290E0805C9F4F821B910960E4AB
:1006000070E00E944B0A089590E080E008952091E8
:10061000EA023091EB0228173907B9F49091E80209
:100620008091E902981789F0E091E802F0E0E25643
:10063000FD4F80812091E80230E02F5F3F4F2F7304
:1006400033272093E80290E008958FEF9FEF0895FD
:1006500082EB93E00E94EF02181619062CF482EB4D
:1006600093E00E940703F4CF1092D7030895E0911E
:10067000EA02F091EB02E817F90769F4A389B4895B
:100680009C918589809589238C931092EB0210921E
:10069000EA0281E0089580E008951092CD0310925F
:1006A000CC031092CB031092CA031092C90310928C
:1006B000C8039C01990F440B550B60E079E08DE372
:1006C00090E00E94810AB901C901039724303105E5
:1006D00010F481E090E09093CF038093CE0390914B
:1006E000BE03963108F05FC0F901F695E795E43155
:1006F000F10508F493C07397F093C903E093C8031E
:100700006630710508F48DC0B901655071097093A8
:10071000CB036093CA03B901660F771F260F371FFB
:1007200036952795369527952D30310508F47CC0F0
:100730002C5031093093CD032093CC0320916800D5
:1007400084E0983048F031E09E3008F430E081E0F9
:1007500001C0880F3A95EAF7822B809368002DE656
:1007600030E0983050F02BE630E09E3030F02CE650
:1007700030E0963110F030E020E03093C603209353
:10078000C503292F30E0983008F051C081E001C046
:10079000880F9A95EAF78093C7038091CE039091D2
:1007A000CF030197F1F78091CC039091CD03892B72
:1007B00021F18091EA029091EB0223E0823B9207C3
:1007C000E1F0009711F00E9437038091D0038E7FF3
:1007D0008093D0031092E9021092E80282EB93E03A
:1007E0009093EB028093EA02E091C503F091C60377
:1007F00080819091C703892B808368EC70E080E052
:1008000090E00E943A0182EB93E00E94EF02892B74
:10081000D9F41092AD031092AC030895E1E0F0E03A
:100820006BCF61E070E073CF21E030E083CF9E308A
:1008300040F42850310981E001C0880F2A95EAF779
:10084000AACF2E503109F7CF82E090E09093AD030C
:100850008093AC0308954115510529F4EAE7F0E0CF
:1008600080818F7780836A307105B9F0CB01880F62
:10087000991F880F991F807267706860682B88E1E4
:100880000FB6F894A895809360000FBE6093600047
:10089000E0E6F0E0808180648083232BD9F483B785
:1008A000817F846083BFF89483B7816083BF85B7FD
:1008B000806685BF8F7D85BF7894889583B78E7F4E
:1008C00083BF7894452B29F4EAE7F0E080818068C3
:1008D0008083089583B7817F846083BFF89483B752
:1008E000816083BF7894889583B78E7F83BF789427
:1008F000E9CFF894E8988CE691E090930101809319
:10090000000161E082E00E94B6007894089590E0D2
:1009100080E00895FC0101900020E9F73197AF01D4
:10092000481B590BBC018CEE92E00C946D018F9228
:100930009F92AF92BF920F931F93CF93DF93CDB748
:10094000DEB7A1970FB6F894DEBF0FBECDBF19A2D8
:10095000423008F44AE08E010F5D1F4F842E912C27
:10096000B12CA12CA50194010E945F0AE62FB901C8
:10097000CA01EA30F4F4E05DD801EE938D01232B37
:10098000242B252B79F790E080E0109719F0CD010A
:100990000E948A04A1960FB6F894DEBF0FBECDBFA9
:1009A000DF91CF911F910F91BF90AF909F908F904B
:1009B0000895E95CE1CFCF92DF92EF92FF92CF935F
:1009C000DF936B017C016DE28CEE92E00E940D02E0
:1009D000EC0166277727CB016C197D098E099F09E9
:1009E0004AE00E9497048C0F9D1FDF91CF91FF90EA
:1009F000EF90DF90CF900895CF93DF93BC01990FD4
:100A0000880B990B4AE00E949704EC0188E291E080
:100A10000E948A048C0F9D1FDF91CF910895CF9380
:100A2000DF930E948A04EC0188E291E00E948A042C
:100A30008C0F9D1FDF91CF9108951F920F920FB6DB
:100A40000F9211242F933F938F939F93AF93BF9354
:100A50008091E0029091E102A091E202B091E30264
:100A60003091DF0223E0230F2D3758F50196A11DA9
:100A7000B11D2093DF028093E0029093E102A093E6
:100A8000E202B093E3028091E4029091E502A0912A
:100A9000E602B091E7020196A11DB11D8093E40228
:100AA0009093E502A093E602B093E702BF91AF9165
:100AB0009F918F913F912F910F900FBE0F901F909C
:100AC000189526E8230F0296A11DB11DD2CF1F92C3
:100AD0000F920FB60F9211242F933F934F935F9372
:100AE0006F937F938F939F93AF93BF93EF93FF93F6
:100AF000E0910201F09103010995FF91EF91BF91FF
:100B0000AF919F918F917F916F915F914F913F91A5
:100B10002F910F900FBE0F901F9018951F920F925C
:100B20000FB60F9211242F933F934F935F936F93C0
:100B30007F938F939F93AF93BF93EF93FF93E09136
:100B40000001F09101010995FF91EF91BF91AF91E3
:100B50009F918F917F916F915F914F913F912F91D5
:100B60000F900FBE0F901F9018951F920F920FB607
:100B70000F9211242F933F934F935F936F937F9323
:100B80008F939F93AF93BF93EF93FF938CEE92E07D
:100B90000E94EB01FF91EF91BF91AF919F918F91D7
:100BA0007F916F915F914F913F912F910F900FBE69
:100BB0000F901F9018951F920F920FB60F9211244D
:100BC0002F938F939F93EF93FF93E091FC02F0910B
:100BD000FD028081E0910203F091030382FD1BC0BE
:100BE0009081809105038F5F8F7320910603821798
:100BF00041F0E0910503F0E0E451FD4F958F8093C3
:100C00000503FF91EF919F918F912F910F900FBE50
:100C10000F901F9018958081F4CF1F920F920FB6FE
:100C20000F9211242F933F934F935F936F937F9372
:100C30008F939F93AF93BF93EF93FF93E091EA025B
:100C4000F091EB02309749F0A685B7858585968DA2
:100C500091FF14C09C918923A1F4FF91EF91BF9162
:100C6000AF919F918F917F916F915F914F913F9144
:100C70002F910F900FBE0F901F9018959C91892374
:100C800061F7A389B4899C918589809589238C9388
:100C9000868997890197F1F7608D718DA685B78553
:100CA000558538E020E0CB010197F1F7822F90E0E5
:100CB00095958795282F4C91452309F02068315050
:100CC00091F7868D81FD20958091E90290E0019653
:100CD0008F7399273091E802381799F0A091E902B3
:100CE000B0E0A256BD4F2C938093E902828D938D84
:100CF0000197F1F7A389B4898C919589892B8C93FD
:100D0000ACCF868D8160868FF1CF1F920F920FB688
:100D10000F9211248F930FB6F894A89580916000DC
:100D2000886180936000109260000FBE8F910F90D9
:100D30000FBE0F901F901895CF93DF93CDB7DEB7FE
:100D40006F970FB6F894DEBF0FBECDBF1092EF02C3
:100D50001092EE0288EE93E0A0E0B0E08093F00203
:100D60009093F102A093F202B093F30228E031E0F5
:100D70003093ED022093EC0225EC30E03093F90241
:100D80002093F80224EC30E03093FB022093FA0227
:100D900020EC30E03093FD022093FC0221EC30E0A7
:100DA0003093FF022093FE0222EC30E030930103E7
:100DB0002093000326EC30E03093030320930203DA
:100DC0001092050310920603109207031092080375
:100DD00010928C0310928B0380938D0390938E035B
:100DE000A0938F03B09390032AE131E030938A03FC
:100DF000209389031092B5031092B4038093B60335
:100E00009093B703A093B803B093B9032AE131E0FC
:100E10003093B3032093B2031092D1031092D20304
:100E20001092D3031092D4034FEF4093D503109246
:100E3000D7034CE45DE15093A9034093A80348E134
:100E400051E05093AB034093AA031092AD0310926C
:100E5000AC031092AF031092AE031092B103109244
:100E6000B0031C821B828D839E83AF83B8873A8335
:100E70002983188E1F8A1A8E198E1C8E1B8E1E8E29
:100E80001D8E6F8D6E7F6D7F6F8F6695617081E0B7
:100E900068278BE00E94B60061E08BE00E94E400CE
:100EA000E9EBF0E0E491E98BE5EAF0E0E491F0E0D1
:100EB000EE0FFF1FEA57FF4F859194919B8B8A8B12
:100EC00060E08AE00E94E4008F8D81FD04C061E053
:100ED0008AE00E94B6009AE09D87E8EBF0E08491FA
:100EE0008E87E4EAF0E0E491F0E0EE0FFF1FE057B8
:100EF000FF4F25913491388B2F874B815C81509324
:100F0000B5034093B4034D815E816F817885409332
:100F1000B6035093B7036093B8037093B903498540
:100F20005A856B857C854093BA035093BB036093CD
:100F3000BC037093BD039093BE038093BF033093B3
:100F4000C1032093C00389898093C2038A899B8946
:100F50009093C4038093C3038C899D899093C603A7
:100F60008093C5038E898093C7038F89988D909352
:100F7000C9038093C803898D9A8D9093CB03809386
:100F8000CA038B8D9C8D9093CD038093CC038D8D64
:100F90009E8D9093CF038093CE039F8D8091D0033D
:100FA00090FB80F991FB81F98093D0038AE191E075
:100FB0009A838983CE0101960E9437036F960FB6FC
:100FC000F894DEBF0FBECDBFDF91CF910895789426
:100FD00084B5826084BD84B5816084BD85B582603E
:100FE00085BD85B5816085BD80916E0081608093EF
:100FF0006E00109281008091810082608093810058
:101000008091810081608093810080918000816067
:10101000809380008091B10084608093B1008091C2
:10102000B00081608093B00080917A0084608093EA
:101030007A0080917A00826080937A0080917A00B1
:10104000816080937A0080917A00806880937A0032
:101050001092C100E091FC02F091FD0282E08083D9
:10106000E091F802F091F9021082E091FA02F09119
:10107000FB028FEC808310920403E0910003F09157
:10108000010386E08083E091FE02F091FF028081FF
:1010900080618083E091FE02F091FF028081886090
:1010A0008083E091FE02F091FF028081806880835E
:1010B000E091FE02F091FF0280818F7D808368ECD9
:1010C00070E080E090E00E943A018BE291E00E94A3
:1010D0000F0560E082E00E94E40061E082E00E948F
:1010E000B60061E084E00E94E40061E084E00E94D8
:1010F000B60060E08AE00E94E40061E08BE00E94BC
:10110000E40061E08BE00E94B60080E895E20E9476
:101110004D036CE271E080E090E00E943A01809122
:10112000EA029091EB02825B934009F0E9C08EE302
:1011300091E00E940F0564E170E080E090E00E9481
:101140003A0184E691E00E948A04C7E0D0E08091F1
:101150006B0090E00C2E02C0959587950A94E2F7FB
:1011600060E380FD61E38CEE92E00E940D02219726
:1011700070F788E291E00E948A048FE791E00E9474
:101180008A0482E090E00E94FC048AEB91E00E94D5
:101190008A0483E090E00E94FC0485EF91E00E94C5
:1011A0008A04C2E0D0E08091680090E00C2E02C07A
:1011B000959587950A94E2F760E380FD61E38CEEF4
:1011C00092E00E940D02219770F788E291E00E9460
:1011D0008A0440EB242E40E0342E5CE9452E50E09A
:1011E000552E65E0E62EF12C74E0C72ED12CE3E0FD
:1011F000AE2EB12C88248394912C39E7632E34E0F1
:10120000732E00E010E061E084E00E94B60068EE1A
:1012100073E080E090E00E943A0180E895E20E944D
:101220004D030E94280364EF71E080E090E00E948B
:101230003A0182EB93E00E94EF0218161906C4F4FB
:101240008091D703811114C0C1EDD3E082EB93E00C
:101250000E9407038993E3E0C53DDE07B9F782EBFF
:1012600093E00E9407032091D5032817190661F324
:101270008091D4038F3F09F05FC08091D10390E04B
:101280004091D20350E09C0121503F4F240F351F65
:1012900033273093B1032093B0036091D3036217D7
:1012A000130689F19092AD038092AC032091AE03B6
:1012B0003091AF038091A8039091A90382179307FF
:1012C0007CF5B092AD03A092AC039093AF038093F2
:1012D000AE031092D7038091AC039091AD03892B9C
:1012E00009F44DC08FE892E00E948A048091AC031B
:1012F0009091AD038130910541F582E192E051C0BA
:101300008FE491E016CF982F8827840F951F909334
:10131000AF038093AE031092AD031092AC03C6CF1F
:101320008091AA039091AB032817390794F6D092C5
:10133000AD03C092AC03C9CFF092AD03E092AC0311
:10134000C8CF4AE00E9497042AC08430910519F45E
:1013500081E292E026C08330910519F483E392E0A4
:1013600020C08530910519F485E492E01AC00297F7
:1013700019F480E592E015C08DE592E012C083E893
:1013800092E00E948A046091AE037091AF03072E31
:10139000000C880B990B97FFD4CF0E94DB048FE0E1
:1013A00092E00E940F058BE692E00E940F0564E632
:1013B00070E080E090E00E943A0160E084E00E94EA
:1013C000B6000E94280382EB93E00E943703E4E713
:1013D000F0E08491F101D491F201C491CC2321F188
:1013E00081110E948D00EC2FF0E0EE0FFF1FE057FF
:1013F000FF4FA591B4918C91D823B1F0F8947092DD
:10140000010160920001809169008C7F80936900E6
:10141000E89A789430E020E050E040E06AE070E044
:101420008EED92E00E942B0464E670E080E090E094
:101430000E943A018AE792E00E940F0564E378E097
:1014400080E090E00E943A010115110509F4DBCE1D
:101450000E94D701882309F4D0CE0E940000CDCE8F
:101460000F931F93CF93DF93C9E8D3E08AE191E014
:10147000998388830AE111E01AA709A782EB93E018
:101480000E94370319830883CE01DF91CF911F910A
:101490000F910C94370397FB072E16F4009407D096
:1014A00077FD09D00E94A00A07FC05D03EF4909574
:1014B00081959F4F0895709561957F4F0895A1E2A2
:1014C0001A2EAA1BBB1BFD010DC0AA1FBB1FEE1FBE
:1014D000FF1FA217B307E407F50720F0A21BB30B09
:1014E000E40BF50B661F771F881F991F1A9469F785
:1014F00060957095809590959B01AC01BD01CF01E1
:101500000895052E97FB1EF400940E94980A57FD3B
:1015100007D00E945F0A07FC03D04EF40C94980A8F
:1015200050954095309521953F4F4F4F5F4F08950F
:1015300090958095709561957F4F8F4F9F4F08953F
:10154000AA1BBB1B51E107C0AA1FBB1FA617B707E9
:1015500010F0A61BB70B881F991F5A95A9F7809505
:101560009095BC01CD010895EE0FFF1F0590F491F9
:10157000E02D099410E0C2E6D0E004C0FE010E9414
:0E158000B40A2196C336D107C9F7F894FFCFFD
:10158E006C016C01000000000D026D019A015A02FF
:10159E00CB01A901BD010000000093026D0187047B
:1015AE009202EF0207037A020D0A00536572696117
:1015BE006C20706F72742061637469766500536578
:1015CE006E736F72206C697374656E696E6700530B
:1015DE00656E736F72206E6F74206C697374656EB6
:1015EE00696E67004461746120696E2050434D53EB
:1015FE004B30207265676973746572203D20004917
:10160E006E746572727570742070696E20696E20CA
:10161E0050434D534B302072656769737465722069
:10162E00666F722073657269616C20706F727420C0
:10163E0070696E205478203D2000496E7465727278
:10164E007570742070696E20696E2050434D534B37
:10165E003020726567697374657220666F722073CD
:10166E00657269616C20706F72742070696E2052A1
:10167E0078203D20004461746120696E20504349FA
:10168E004352207265676973746572203D20006D48
:10169E006D00436865636B73756D206572726F7252
:1016AE000042656C6F77206C6F776572206C696D88
:1016BE0069740041626F7665207570706572206C7A
:1016CE00696D69740044617461206572726F720095
:1016DE0053657269616C206572726F7200556E6B24
:1016EE006E6F776E206572726F7200476F696E67EC
:1016FE0020746F20736C65657000576F6B656E207C
:10170E0055700044697374616E6365203D20004519
:0E171E0072726F7220636F6465203D200000C0
:00000001FF
